:100000000C94B8010C94E9010C94E9010C94E901F9
:100010000C94E9010C94E9010C94E9010C94E901B8
:100020000C94E9010C94E9010C94E9010C94E901A8
:100030000C94E9010C94E9010C94E9010C94E90198
:100040000C94E9010C94E9010C94E9010C94E90188
:100050000C94E9010C94E9010C94E9010C94CA0791
:100060000C94E9010C9494070C946A070C94E90130
:100070000C94E9010C94E9010C94E9010C94E90158
:100080000C94E9010C94E9010C94E9010C94E90148
:100090000C94E9010C94E9010C94E9010C94E90138
:1000A0000C94E9010C94E9010C94E9010C94E90128
:1000B0000C94E9010C94E9010C94E9010C94E90118
:1000C0000C94E9010C94E9010C94E9010C94E90108
:1000D0000C94E9010C94E9010C94E9010C94E901F8
:1000E0000C94E9010C9467030C9444030C9475037D
:1000F0000C9483030C9450030C9414080C94190270
:100100000C947E030C9466040C94BD050C94790346
:100110000C94CF020C9453030C9471030C945D0364
:100120000C944A020C9482020C943E030C947F03BC
:100130000C94EB010C944C030C9459030C946B033A
:100140000C9463030C943C020C94EC010C94480353
:100150000C94280200407A10F35A00A0724E18093D
:100160000010A5D4E80000E87648170000E40B541E
:10017000020000CA9A3B000000E1F50500008096ED
:100180009800000040420F000000A086010000001F
:10019000102700000000E8030000000064000000D9
:1001A00000000A00000000000100000000002C76A2
:1001B000D888DC674F0823DFC1DFAE59E1B1B796BD
:1001C000E5E3E453C63AE651997696E8E6C284261A
:1001D000EB898C9B62ED407C6FFCEFBC9C9F40F2F6
:1001E000BAA56FA5F490055A2AF75C936B6CF96772
:1001F0006DC11BFCE0E40D47FEF520E6B500D0ED37
:10020000902E0300943577050080841E080000209E
:100210004E0A000000C80C333333330F986E12833C
:100220001141EF8D2114893BE65516CFFEE6DB1810
:10023000D1844B381BF77C1D901DA4BBE4242032D5
:1002400084725E228100C9F124ECA1E53D27000003
:100250002100240027002A002D0030003300010176
:100260000000040107010A01000022002500280007
:100270002B002E00310034000201000005010801AE
:100280000B01000020002300260029002C002F0075
:100290003200000100000301060109010505050502
:1002A000070508080808020202020A0A08080404EE
:1002B000040401010101010101010303030303031C
:1002C0000303040707070C0C0C0C0C0C0C0C0202AB
:1002D000020206060606060606060B0B0B0B0B0BA8
:1002E0000B0B010210202008081020401020408035
:1002F00002010201080402010102040810204080EA
:100300008040201008040201800402018040201077
:1003100008040201080402010102040810204080C0
:10032000010204081020408000000A0B02090C0D95
:100330000E08070304010000000000000000000098
:1003400000000000000000000000000000000000AD
:10035000000000001211100000000000000000006A
:100360000000000000000000000000000000140871
:1003700011241FBECFEFD1E2DEBFCDBF00E00CBF26
:1003800023E0AEECB2E001C01D92A139B207E1F763
:1003900012E0A0E0B2E0E6EDF3E200E00BBF02C045
:1003A00007900D92AE3CB107D9F711E0C8EBD1E050
:1003B00000E006C021970109802FFE010E94CB0FAB
:1003C000C73BD10780E00807A9F70E945E080C949C
:1003D000E9110C9400000895AF92BF92CF92DF9282
:1003E000EF92FF920F931F93CF93DF936C017B01EA
:1003F0008B01040F151FEB015E01AE18BF08C0177B
:10040000D10759F06991D601ED91FC910190F081ED
:10041000E02DC6011995892B79F7C501DF91CF91A0
:100420001F910F91FF90EF90DF90CF90BF90AF9012
:100430000895FC01538D448D252F30E0842F90E0EA
:10044000821B930B541710F0CF96089501970895CF
:10045000FC01918D828D981761F0A28DAE0FBF2F98
:10046000B11D5D968C91928D9F5F9F73928F90E0EE
:1004700008958FEF9FEF0895FC01918D828D98175D
:1004800031F0828DE80FF11D858D90E008958FEF9A
:100490009FEF0895FC01918D228D892F90E0805C63
:1004A0009F4F821B91098F739927089588ED92E0E1
:1004B0000E944A0221E0892B09F420E0822F08954E
:1004C000FC01A48DA80FB92FB11DA35ABF4F2C91C9
:1004D000848D90E001968F739927848FA689B789C0
:1004E0002C93A089B1898C91837080648C93938DB7
:1004F000848D981306C00288F389E02D80818F7D5A
:1005000080830895EF92FF920F931F93CF93DF9311
:10051000EC0181E0888F9B8D8C8D98131AC0E8893F
:10052000F989808185FF15C09FB7F894EE89FF890E
:100530006083E889F98980818370806480839FBFAC
:1005400081E090E0DF91CF911F910F91FF90EF90AC
:100550000895F62E0B8D10E00F5F1F4F0F731127BC
:10056000E02E8C8D8E110CC00FB607FCFACFE889F7
:10057000F989808185FFF5CFCE010E946002F1CF1D
:10058000EB8DEC0FFD2FF11DE35AFF4FF0829FB76B
:10059000F8940B8FEA89FB8980818062CFCFCF935B
:1005A000DF93EC01888D8823B9F0AA89BB89E8899B
:1005B000F9898C9185FD03C0808186FD0DC00FB641
:1005C00007FCF7CF8C9185FFF2CF808185FFEDCFBF
:1005D000CE010E946002E9CFDF91CF91089580E0C3
:1005E00090E0892B29F00E94560281110E940000A0
:1005F00080E090E0892B49F080E090E0892B29F0A1
:100600000E94000081110E94000080E090E0892B90
:1006100049F080E090E0892B29F00E9400008111D0
:100620000E94000080E090E0892B49F080E090E09B
:10063000892B29F00E94000081110C94000008957C
:100640008150823108F05AC0E82FF0E08827E45D3D
:10065000FC4F8F4F0C94CB0F4C0350033E034403CD
:1006600048037E03530359035D03630367036B036E
:10067000710375037E0379037F03830380918000F8
:100680008F77809380000895809180008F7DF9CFCF
:1006900080918000877FF5CF84B58F7784BD0895E2
:1006A00084B58F7DFBCF8091B0008F778093B000B1
:1006B00008958091B0008F7DF9CF809190008F7761
:1006C000809390000895809190008F7DF9CF809164
:1006D0009000877FF5CF8091A0008F778093A00056
:1006E00008958091A0008F7DF9CF8091A000877F31
:1006F000F5CF809120018F7780932001089580911C
:1007000020018F7DF9CF80912001877FF5CFCF9396
:10071000DF93282F30E0F901E85DFC4F8491F90167
:10072000EE51FD4FD491F901E456FD4FC491CC2315
:10073000A1F081110E942003EC2FF0E0EE0FFF1FCB
:10074000EE57FD4FA591B491EC91ED2381E090E03F
:1007500009F480E0DF91CF91089580E090E0FACF36
:100760001F93CF93DF93282F30E0F901E85DFC4F12
:100770008491F901EE51FD4FD491F901E456FD4FFA
:10078000C491CC23A9F0162F81110E942003EC2FD5
:10079000F0E0EE0FFF1FE859FD4FA591B4918FB720
:1007A000F894EC91111108C0D095DE23DC938FBF33
:1007B000DF91CF911F910895DE2BF8CFCF93DF9378
:1007C00090E0FC01EE51FD4F249184569D4FFC01B9
:1007D00084918823D1F090E0880F991FFC01E25B9F
:1007E000FD4FA591B491FC01E859FD4FC591D491FD
:1007F00061110EC09FB7F8948C91E22FE0958E2383
:100800008C932881E223E8839FBFDF91CF910895E5
:100810008FB7F894EC91E22BEC938FBFF6CF3FB7F4
:10082000F8948091D3029091D402A091D502B09116
:10083000D60226B5A89B05C02F3F19F00196A11D31
:10084000B11D3FBFBA2FA92F982F8827BC01CD011A
:10085000620F711D811D911D42E0660F771F881F79
:10086000991F4A95D1F708958F929F92AF92BF92A8
:10087000CF92DF92EF92FF924B015C010E940F0436
:100880006B017C010E940F046C197D098E099F0980
:10089000683E734081059105A8F321E0821A910812
:1008A000A108B10888EEC80E83E0D81EE11CF11C37
:1008B00081149104A104B10429F7FF90EF90DF9017
:1008C000CF90BF90AF909F908F90089590E080E080
:1008D0000895CF93DF93EC0160E08E810E94B00316
:1008E00061E08E810E94B00360E08E810E94B003BF
:1008F0008BE891E00197F1F7DF91CF910895CF92C6
:10090000DF92EF92FF920F931F93CF93DF936C01CF
:100910007C0187E0E80EF11CD0E0C0E0062F10E07B
:10092000B8010C2E02C0759567950A94E2F76170C4
:10093000F70181917F010E94B0032196C430D10557
:1009400079F7C601DF91CF911F910F91FF90EF9042
:10095000DF90CF900C946904CF92DF92EF92FF92D8
:100960000F931F93CF93DF93EC01F62E642F8C81AE
:100970000E94B0038D818F3F19F060E00E94B003A8
:100980000F2D10E08F8584FF25C06E0187E0C80E13
:10099000D11CF12CE12CB8010E2C02C07595679585
:1009A0000A94E2F76170F60181916F010E94B00331
:1009B000FFEFEF1AFF0A88E0E816F10461F7CE01B5
:1009C000DF91CF911F910F91FF90EF90DF90CF902B
:1009D0000C946904B80184E0759567958A95E1F7F0
:1009E000CE010E947F046F2DCE01DF91CF911F9128
:1009F0000F91FF90EF90DF90CF900C947F0440E038
:100A0000682F85E793E00C94AC0481E00E94FF041A
:100A10008BE39FE10197F1F70895CF93DF93823045
:100A200029F49091840398609093840380938803C1
:100A30001092890380E480938A0380E180938B0382
:100A400080E580938C0361E0809179030E94DE034E
:100A500080917A038F3F19F061E00E94DE0361E02C
:100A600080917B030E94DE03C5E7D3E09E012557FA
:100A700033408091840384FD0BC084E090E0219694
:100A80002817390744F461E08E810E94DE03EECF1F
:100A900088E090E0F4CF8BE39DE00197F1F760E010
:100AA000809179030E94B00360E080917B030E94F3
:100AB000B00380917A038F3F19F060E00E94B00389
:100AC0008091840384FD34C063E085E793E00E9455
:100AD0007F04CBE4D6E4CE010197F1F763E085E72C
:100AE00093E00E947F042197F1F763E085E793E0AC
:100AF0000E947F0483E592E00197F1F762E085E7C9
:100B000093E00E947F048091840380620E94FF042E
:100B100084E0809385038CE00E94FF040E94050519
:100B200082E08093860386E0DF91CF910C94FF04EE
:100B300080620E94FF048BE496E40197F1F78091B4
:100B4000840380620E94FF0483E592E00197F1F73D
:100B50008091840380620E94FF04D5CF9091880326
:100B6000691710F06FEF690FE62FF0E0EB58FC4FBC
:100B70009489890F80680C94FF0441E00E94AC04C2
:100B800081E090E00895FB0101900020E9F73197A2
:100B9000AF01461B570BDC01ED91FC910280F38104
:100BA000E02D19948F929F92AF92BF920F931F9353
:100BB000CF93DF93CDB7DEB7A1970FB6F894DEBF22
:100BC0000FBECDBF19A2423008F44AE08E010F5D7E
:100BD0001F4F842E912CB12CA12CA50194010E94B1
:100BE000A90FE62FB901CA01EA3004F5E05DD8018A
:100BF000EE938D01232B242B252B79F790E080E0B9
:100C0000109729F0BD0188ED92E00E94C305A196DE
:100C10000FB6F894DEBF0FBECDBFDF91CF911F910D
:100C20000F91BF90AF909F908F900895E95CDFCFB8
:100C30004F925F926F927F928F929F92AF92BF92EC
:100C4000CF92DF92EF92FF920F931F93CF936B019E
:100C50007C01742EAC019B010E94A40F64E272E03F
:100C6000811126C046015701E894B7F82FEF3FEFF6
:100C70004FE75FE7C501B4010E94A40F81110CC0CA
:100C80002FEF3FEF4FE75FE7C501B4010E946D0D05
:100C900068E272E0181664F02FEF3FEF4FE75FE471
:100CA000C701B6010E949F0F1816ACF46CE272E007
:100CB00088ED92E0CF911F910F91FF90EF90DF9020
:100CC000CF90BF90AF909F908F907F906F905F90EC
:100CD0004F900C94C3052FEF3FEF4FE75FECC70138
:100CE000B6010E946D0D87FDE1CF20E030E0A90143
:100CF000C701B6010E946D0D10E000E087FF0AC039
:100D00006DE288ED92E00E9482028C01F7FAF09485
:100D1000F7F8F094C0E060E070E080E09FE37C16BC
:100D200041F020E030E040E251E40E94FE0ECF5F4F
:100D3000F6CFA70196010E94920E2B013C010E9462
:100D4000700F4B015C014AE00E94D2057C01E00E6D
:100D5000F11ECC23C1F1C501B4010E94720D9B01AB
:100D6000AC01C301B2010E94910E4B015C016EE225
:100D700088ED92E00E948202E80EF91EC15018F13F
:100D800020E030E040E251E4C501B4010E94D30DFF
:100D90002B013C010E94700F4B01B12CA12C4AE0A9
:100DA000C501B4010E94D205E80EF91EC501B401C7
:100DB0000E94720D9B01AC01C301B2010E94910E11
:100DC0004B015C01DBCFC701CF911F910F91FF90C9
:100DD000EF90DF90CF90BF90AF909F908F907F90DB
:100DE0006F905F904F900895CF93DF93BC0188ED93
:100DF00092E00E94C305EC0160E372E088ED92E0AE
:100E00000E94C3058C0F9D1FDF91CF910895CF9352
:100E1000DF93EC0188819981009711F00E946F1097
:100E2000198218821D821C821B821A82DF91CF9147
:100E30000895FC0180819181009711F00C946F104E
:100E400008950F931F93CF93DF93EC0188819981CD
:100E5000009759F02A813B812617370730F081E04F
:100E6000DF91CF911F910F9108958B016F5F7F4F9D
:100E70000E94F810009759F0998388831B830A8396
:100E80002C813D81232B59F7FC011082E8CF80E0B3
:100E9000E7CFEF92FF920F931F93CF93DF93EC0175
:100EA0007B018A01BA010E94210781110BC0CE018A
:100EB0000E940707CE01DF91CF911F910F91FF9004
:100EC000EF9008951D830C83B701888199810E945A
:100ED000E211F0CF1F920F920FB60F9211240BB6B2
:100EE0000F922F933F934F935F936F937F938F93C3
:100EF0009F93AF93BF93EF93FF9388ED92E00E948F
:100F00006002FF91EF91BF91AF919F918F917F917F
:100F10006F915F914F913F912F910F900BBE0F906A
:100F20000FBE0F901F9018951F920F920FB60F9241
:100F300011240BB60F922F938F939F93EF93FF93F0
:100F4000E091E802F091E9028081E091EE02F091F7
:100F5000EF0282FD1DC090818091F1028F5F8F733F
:100F60002091F202821741F0E091F102F0E0E852A4
:100F7000FD4F958F8093F102FF91EF919F918F919B
:100F80002F910F900BBE0F900FBE0F901F901895D2
:100F90008081F2CF1F920F920FB60F9211242F93E0
:100FA0003F938F939F93AF93BF938091CF02909184
:100FB000D002A091D102B091D2023091CE0223E0B2
:100FC000230F2D3758F50196A11DB11D2093CE0298
:100FD0008093CF029093D002A093D102B093D2021B
:100FE0008091D3029091D402A091D502B091D60203
:100FF0000196A11DB11D8093D3029093D402A093BA
:10100000D502B093D602BF91AF919F918F913F913E
:101010002F910F900FBE0F901F90189526E8230F69
:101020000296A11DB11DD2CFE8EDF2E0138212822B
:1010300088EE93E0A0E0B0E084839583A683B78335
:101040008AE092E09183808385EC90E095878487A5
:1010500084EC90E09787868780EC90E0918B808B82
:1010600081EC90E0938B828B82EC90E0958B848B6B
:1010700086EC90E0978B868B118E128E138E148ED9
:10108000E5E7F3E0138212828CE192E091838083A2
:101090008CE084838FEF85838BE0868385E0878374
:1010A00084E0808783E0818782E0828713861486CC
:1010B00015861686178681E00C940D05CF93DF9375
:1010C000CDB7DEB7AD970FB6F894DEBF0FBECDBF7C
:1010D000789484B5826084BD84B5816084BD85B513
:1010E000826085BD85B5816085BD80916E0081601F
:1010F00080936E00109281008091810082608093C5
:1011000081008091810081608093810080918000C6
:101110008160809380008091B10084608093B100F1
:101120008091B00081608093B000809191008260D6
:1011300080939100809191008160809391008091D3
:1011400090008160809390008091A10082608093E4
:10115000A1008091A10081608093A1008091A000F6
:1011600081608093A00080912101826080932101A1
:101170008091210181608093210180912001816013
:101180008093200180917A00846080937A0080911E
:101190007A00826080937A0080917A0081608093E7
:1011A0007A0080917A00806880937A001092C10062
:1011B000E091E802F091E90282E08083E091E402AC
:1011C000F091E5021082E091E602F091E7028FECE7
:1011D00080831092F002E091EC02F091ED0286E043
:1011E0008083E091EA02F091EB028081806180834C
:1011F000E091EA02F091EB02808188608083E091C7
:10120000EA02F091EB02808180688083E091EA023B
:10121000F091EB0280818F7D808361E08CE10E9400
:10122000DE0361E08EE10E94DE0361E087E20E945E
:10123000DE0360E08BE10E94DE0360E087E00E9455
:10124000DE0360E088E00E94DE0361E086E10E9448
:10125000DE0361E087E10E94DE0382E00E940D056B
:1012600060E080E00E94AE050E94050563E372E045
:1012700085E793E00E94C30564EF71E080E090E0B1
:101280000E9434040E94050583E4F82E64E670E0B1
:1012900080E090E00E9434048BE10E948703019774
:1012A000A1F482E492E00E94F40661E08CE10E94E5
:1012B000B00361E08EE10E94B00361E086E10E942C
:1012C000B00360E087E10E94B0038BE10E948703D6
:1012D000892BA1F48EE692E00E94F40660E08CE196
:1012E0000E94B00360E08EE10E94B00360E086E1FE
:1012F0000E94B00360E087E10E94B00387E00E9493
:101300008703019741F48BE892E00E94F40661E0C4
:1013100087E20E94B00387E00E948703892B41F493
:1013200083E992E00E94F40660E087E20E94B00345
:1013300088E00E948703019739F48BE992E00E94CC
:10134000F40681E08093D70288E00E948703892B0E
:1013500031F483EA92E00E94F4061092D702809161
:101360007B00877F80937B00F0927C0080917A00E5
:10137000806480937A0080917A0086FDFCCF809112
:10138000780060917900762F682F072E000C880B6B
:10139000990B0E94740D20E030E040E85AE30E946F
:1013A000D30D20E030E44CE955E40E94D30D20E059
:1013B00030E040E251E40E94FE0E2B013C0120E0AF
:1013C00030E040E151E40E94D30D20E030E040EAFB
:1013D00050E40E94FE0E20E030E040E052E40E9423
:1013E000920E4B015C0119A618A61BA61AA61DA6F3
:1013F0001CA650E040E062E372E0CE0188960E94B5
:1014000049071BA21AA21DA21CA21FA21EA28E0186
:101410000F5F1F4F22E044E0C501B4010E94FE0AA5
:10142000009709F4C3C0FC0101900020E9F731974F
:10143000AF01481B590BBC01CE0182960E9449079F
:1014400088A599A5009709F4B8C06AA17BA1611588
:10145000710509F4B0C04AA55BA52EA13FA14217B2
:10146000530708F4A8C00E94E2118EA19FA19DA776
:101470008CA71FA21EA2CE0182960E9419070E946D
:1014800005058091D702882309F4B3C06AEA72E0A7
:1014900088ED92E00E94C30542E0C301B2010E94C0
:1014A000180668EB72E088ED92E00E94C30560E3E5
:1014B00072E088ED92E00E94C3056AEA72E088ED6E
:1014C00092E00E94C30542E0C501B4010E941806E3
:1014D0006CEB72E088ED92E00E94C30560E372E07D
:1014E00088ED92E00E94C30560E084E00E94AE05B2
:1014F0001A8219821C821B821E821D8268A579A510
:101500006115710531F04CA55DA5CE0101960E94D3
:1015100049070D811E810D5F1F4FB801CE01019655
:101520000E942107882309F459C029813A818D81BD
:101530009E816BEB72E0820F931F0E94E2111E836B
:101540000D834D815E8169817A8185E793E00E94F8
:10155000EC01CE0101960E94190720E030E048EC32
:1015600052E4C501B4010E949F0F61E01816DCF53A
:1015700084E00E94AE056FEB72E085E793E00E9485
:10158000C30564EF71E080E090E00E9434040E94A3
:10159000050568EC70E080E090E00E943404CE0124
:1015A00088960E9419070E94EF0270CECE018296A3
:1015B0000E94070745CF0E946F108AA19BA199A79F
:1015C00088A78CA19DA19BA78AA78EA19FA19DA75B
:1015D0008CA71BA21AA21DA21CA24BCFCE01019662
:1015E0000E940707AECF84E00E94AE0568EC72E06F
:1015F000C4CF60E087E20E94B003CBCFEF920F939D
:101600001F93CF93DF93E80134E047FD34E1042ECC
:10161000000C550B57FF03C0519541955109E32E1E
:10162000022F242FAE010E941C0BCE01DF91CF911F
:101630001F910F91EF9008958F929F92AF92BF925A
:10164000CF92DF92EF92FF920F931F93CF93DF938E
:1016500000D000D000D0CDB7DEB76A01F22EB02E98
:10166000102FFBE3AF2EA01608F41BE31F5F012F22
:1016700027E0AE014F5F5F4F0E94950CBC0189814E
:10168000982F9970913009F44EC09BE2E1FC04C0A0
:101690009E2D9170E0FC49C05E2D5071E82FE870DE
:1016A00083FF55C084E0911101C083E0EF2DE81B5A
:1016B0008F1508F0E0E0D6018E2F20E25523C9F106
:1016C000992329F0D6019C93C60101966C019601DD
:1016D0002D5F3F4FE2FE33C08EE4D6018C9391E440
:1016E00011969C93119712968C93D9018E2F90E2AC
:1016F00081112AC0E20FF32FF11D10828EEF9FEFB0
:1017000029960FB6F894DEBF0FBECDBFDF91CF9103
:101710001F910F91FF90EF90DF90CF90BF90AF900F
:101720009F908F9008959DE2B7CF90E2B5CF2D9313
:1017300081508111FCCFCE0ED11CE0E0C1CF8EE6EE
:10174000D6018C9391E6CCCF9D938150D1CF482F79
:10175000447082FF3DC084E0911101C083E08F1589
:1017600010F4EF2DE81BD6018E2F20E2552309F14E
:10177000992329F0D6019C93C60101966C0196012C
:101780002D5F3F4FE2FE1BC089E4D6018C938EE4AF
:1017900011968C93119786E412968C93D9018E2F13
:1017A00090E2882309F4A6CF9D938150FACF2D9320
:1017B00081508111FCCFCE0ED11CE0E0D9CF89E65B
:1017C000D6018C938EE611968C93119786E6E4CF22
:1017D0009B0177FF02C030E020E0A1E0B0E0911172
:1017E00002C0B0E0A0E0F9013196AE0FBF1F8B2C14
:1017F000912CBB2009F461C05401EFEFAE1ABE0A70
:10180000AA0DBB1DFA161B0619F014F04F2D4A1B2A
:10181000511188C0E3FC59C07601A42FB0E2A11198
:101820004FC0C40ED11C992309F45BC040E0D6011F
:101830001196F60190836D01552309F448C0012FDC
:10184000060F9A81582F507184FF03C0913309F419
:10185000015010160CF047C0093008F008E0EEE225
:10186000FE2E5B01A01AB108850191948194910824
:101870002F3F320729F4D601FC92F60131966F0111
:101880006217730794F1021713077CF5DB01A21BA3
:10189000B30BAA24A394B12CAC0EBD1EAA0DBB1D84
:1018A00011968C9121503109D601119628153905D0
:1018B000F4F0F60180836D01DBCFB12CA12CA0CF19
:1018C000F701B1937F01A150AACF9111B0CFD601FA
:1018D000942F50E302C05D9391509111FCCFC40E40
:1018E000D11C40E0ACCF01E0BACF80E3DBCF621780
:1018F000730731F4963388F4953311F4552369F066
:10190000F6018083FD01842F90E2811108C0A40FAD
:10191000B11D1C9290E080E0F3CE81E3F1CF919372
:101920008150F3CF911183CF8ACF283008F027E080
:101930003327DA01990F311D87FD9160009661050B
:10194000710539F432602E5F3D9330E32A95E1F75B
:1019500008959F3F30F080387105610509F03C5FC4
:101960003C5F3D93913008F08068911DDF93CF93E9
:101970001F930F93FF92EF92192F987F9695E92F5F
:1019800096959695E90FFF27E255FE4F9927332745
:10199000EE24FF24A701E70105900894079428F49A
:1019A000360FE71EF81E491F511D660F771F881F4F
:1019B000991F0694A1F70590079428F4E70EF81EE6
:1019C000491F561FC11D770F881F991F661F069458
:1019D000A1F70590079428F4F80E491F561FC71F5A
:1019E000D11D880F991F661F771F0694A1F70590D8
:1019F000079420F4490F561FC71FD81F990F661F61
:101A0000771F881F0694A9F784911095177041F0ED
:101A1000D695C79557954795F794E7941A95C1F7CA
:101A2000E4E5F1E0689415901591359165919591F3
:101A300005907FE27395E118F10A430B560BC90B31
:101A4000D009C0F7E10CF11E431F561FC91FD01D5E
:101A50007EF4703311F48A95E6CFE894015030F0AB
:101A6000080F0AF40027021708F4202F2395022FED
:101A70007A3328F079E37D932A95E9F710C07D93B6
:101A80002A9589F606949795679537951795179433
:101A9000E118F10A430B560BC90BD00998F02395B6
:101AA0007E9173957A3308F070E37C932013B8F736
:101AB0007E9170617D9330F0839571E37D9370E347
:101AC0002A95E1F71124EF90FF900F911F91CF918C
:101AD000DF91992787FD909508950E94AF0D08F436
:101AE00081E00895E89409C097FB3EF490958095B5
:101AF000709561957F4F8F4F9F4F9923A9F0F92FD4
:101B000096E9BB279395F695879577956795B79551
:101B1000F111F8CFFAF4BB0F11F460FF1BC06F5F37
:101B20007F4F8F4F9F4F16C0882311F096E911C049
:101B3000772321F09EE8872F762F05C0662371F06A
:101B400096E8862F70E060E02AF09A95660F771F7E
:101B5000881FDAF7880F9695879597F90895990F5A
:101B60000008550FAA0BE0E8FEEF16161706E80767
:101B7000F907C0F012161306E407F50798F0621B88
:101B8000730B840B950B39F40A2661F0232B242B5D
:101B9000252B21F408950A2609F4A140A6958FEF7C
:101BA000811D811D08950E94E60D0C94570E0E9420
:101BB000490E38F00E94500E20F0952311F00C943D
:101BC000400E0C94460E11240C948B0E0E94680E4D
:101BD00070F3959FC1F3950F50E0551F629FF00180
:101BE000729FBB27F00DB11D639FAA27F00DB11D99
:101BF000AA1F649F6627B00DA11D661F829F222722
:101C0000B00DA11D621F739FB00DA11D621F839FA8
:101C1000A00D611D221F749F3327A00D611D231F7E
:101C2000849F600D211D822F762F6A2F11249F57CC
:101C300050409AF0F1F088234AF0EE0FFF1FBB1FCF
:101C4000661F771F881F91505040A9F79E3F51058E
:101C500080F00C94400E0C948B0E5F3FE4F3983EA2
:101C6000D4F3869577956795B795F795E7959F5F38
:101C7000C1F7FE2B880F911D9695879597F90895CA
:101C800097F99F6780E870E060E008959FEF80EC2F
:101C9000089500240A9416161706180609060895D2
:101CA00000240A9412161306140605060895092E38
:101CB0000394000C11F4882352F0BB0F40F4BF2BA7
:101CC00011F460FF04C06F5F7F4F8F4F9F4F0895E7
:101CD00057FD9058440F551F59F05F3F71F04795DD
:101CE000880F97FB991F61F09F3F79F087950895C2
:101CF000121613061406551FF2CF4695F1DF08C0E1
:101D0000161617061806991FF1CF869571056105FD
:101D100008940895E894BB2766277727CB0197F9A5
:101D200008955058BB27AA270E94A90E0C94570E5D
:101D30000E94490E38F00E94500E20F039F49F3F67
:101D400019F426F40C94460E0EF4E095E7FB0C947F
:101D5000400EE92F0E94680E58F3BA176207730706
:101D60008407950720F079F4A6F50C948A0E0EF4FA
:101D7000E0950B2EBA2FA02D0B01B90190010C019B
:101D8000CA01A0011124FF27591B99F0593F50F4B3
:101D9000503E68F11A16F040A22F232F342F44270B
:101DA000585FF3CF469537952795A795F040539503
:101DB000C9F77EF41F16BA0B620B730B840BBAF0D3
:101DC0009150A1F0FF0FBB1F661F771F881FC2F73E
:101DD0000EC0BA0F621F731F841F48F48795779552
:101DE0006795B795F7959E3F08F0B0CF9395880F0C
:101DF00008F09927EE0F9795879508950E94120F86
:101E00000C94570E0E94500E58F00E94490E40F05C
:101E100029F45F3F29F00C94400E51110C948B0E65
:101E20000C94460E0E94680E68F39923B1F3552373
:101E300091F3951B550BBB27AA27621773078407DD
:101E400038F09F5F5F4F220F331F441FAA1FA9F373
:101E500035D00E2E3AF0E0E832D091505040E69561
:101E6000001CCAF72BD0FE2F29D0660F771F881FC2
:101E7000BB1F261737074807AB07B0E809F0BB0BB5
:101E8000802DBF01FF2793585F4F3AF09E3F5105C9
:101E900078F00C94400E0C948B0E5F3FE4F3983E68
:101EA000D4F3869577956795B795F7959F5FC9F7B2
:101EB000880F911D9695879597F90895E1E0660F33
:101EC000771F881FBB1F621773078407BA0720F0AC
:101ED000621B730B840BBA0BEE1F88F7E095089515
:101EE0000E94700E88F09F5798F0B92F9927B7512C
:101EF000B0F0E1F0660F771F881F991F1AF0BA95AE
:101F0000C9F714C0B13091F00E948A0EB1E0089573
:101F10000C948A0E672F782F8827B85F39F0B93F65
:101F2000CCF3869577956795B395D9F73EF4909560
:101F30008095709561957F4F8F4F9F4F08950E94B8
:101F4000AF0D08F48FEF08950E94AF0D880B990B29
:101F50000895A1E21A2EAA1BBB1BFD010DC0AA1FEA
:101F6000BB1FEE1FFF1FA217B307E407F50720F002
:101F7000A21BB30BE40BF50B661F771F881F991F7D
:101F80001A9469F760957095809590959B01AC01C6
:101F9000BD01CF010895EE0FFF1F881F8BBF079073
:101FA000F691E02D19940F931F93CF93DF93823016
:101FB000910510F482E090E0E0918F03F09190039E
:101FC00030E020E0B0E0A0E0309799F42115310531
:101FD00009F44AC0281B390B24303105D8F58A8111
:101FE0009B816115710589F1FB0193838283FE0159
:101FF00011C0408151810281138148175907E0F0D7
:102000004817590799F4109761F012960C9312979C
:1020100013961C933296CF01DF91CF911F910F91B0
:10202000089500938F0310939003F4CF2115310589
:1020300051F04217530738F0A901DB019A01BD01A5
:10204000DF01F801C1CFEF01F9CF909390038093A6
:102050008F03CDCFFE01E20FF31F819391932250A6
:10206000310939832883D7CF20918D0330918E0396
:10207000232B41F4209102023091030230938E030E
:1020800020938D032091000230910102211531052A
:1020900041F42DB73EB74091040250910502241B34
:1020A000350BE0918D03F0918E03E217F307A0F456
:1020B0002E1B3F0B2817390778F0AC014E5F5F4F9E
:1020C0002417350748F04E0F5F1F50938E0340933F
:1020D0008D03819391939FCFF0E0E0E09CCFCF936D
:1020E000DF930097E9F0FC01329713821282A091EE
:1020F0008F03B0919003ED0130E020E01097A1F440
:1021000020813181820F931F20918D0330918E03A6
:102110002817390709F061C0F0938E03E0938D030F
:10212000DF91CF910895EA01CE17DF07E8F54A81E4
:102130005B819E0141155105B1F7E901FB83EA83FB
:1021400049915991C40FD51FEC17FD0761F48081A7
:1021500091810296840F951FE9019983888382817A
:1021600093819B838A83F0E0E0E012968D919C91AD
:1021700013970097B9F52D913C911197CD010296D7
:10218000820F931F20918D0330918E0328173907FA
:1021900039F6309751F51092900310928F03B09357
:1021A0008E03A0938D03BCCFD383C2834081518122
:1021B000840F951FC817D90761F44E5F5F4F888160
:1021C0009981480F591F518340838A819B81938352
:1021D00082832115310509F0B0CFF0939003E0938D
:1021E0008F039ECFFD01DC01C0CF13821282D7CFB7
:1021F0004F925F926F927F928F929F92AF92BF9217
:10220000CF92DF92EF92FF920F931F93CF93DF93C2
:102210008C01009799F4CB01DF91CF911F910F9121
:10222000FF90EF90DF90CF90BF90AF909F908F90F6
:102230007F906F905F904F900C94D30FFC01E60F4E
:10224000F71F9C0122503109E217F30708F4AEC0D2
:10225000D901CD91DC911197C617D70720F1C53070
:10226000D10578F0CE0104978617970750F0C61B6A
:10227000D70B2297C193D1936D937C93CF010E948A
:102280006F10C801DF91CF911F910F91FF90EF90D8
:10229000DF90CF90BF90AF909F908F907F906F9086
:1022A0005F904F9008955B01AC1ABD0A4C018C0EF3
:1022B0009D1EA0918F03B0919003512C412CF12CC5
:1022C000E12C109731F580918D0390918E03881544
:1022D000990509F05CC04616570608F058C0809171
:1022E000000290910102009741F48DB79EB7409192
:1022F000040250910502841B950BE817F90708F0BA
:1023000055C0F0938E03E0938D03F90171836083D0
:10231000B8CF8D919C91119712966C90129713964D
:102320007C901397A815B90559F56C0142E0C40ECD
:10233000D11CCA14DB0420F1AC014A195B09DA0193
:102340001296159780F06282738251834083D9017F
:102350006D937C93E114F10471F0D7011396FC9313
:10236000EE9312978ECF22968C0F9D1FF9019183C9
:102370008083F301EFCFF0939003E0938F0381CF3D
:102380004816590608F42C017D01D3019ACFCB01E0
:102390000E94D30F7C01009749F0AE01B8010E9462
:1023A000D911C8010E946F1087016BCF10E000E0C7
:1023B00068CFFB01DC0102C001900D9241505040FA
:1023C000D8F70895FB01DC0101900D920020E1F7A0
:0623D0000895F894FFCF10
:1023D600000091038000000000008202EC01190257
:1023E600CF024A0228023C0200000000BD05EC01B3
:1023F6006604EB016E616E00696E66006F766600BC
:102406000D0A00496E697469616C697A696E672E96
:102416002E00466C616D6520646574656374656441
:102426002E2E2E212074616B6520616374696F6E98
:1024360020696D6D6564696174656C792E004E6FF7
:1024460020666C616D652064657465637465642ED1
:10245600207374617920636F6F6C00594553204770
:102466004153004E4F5420474153005072657365E7
:102476006E7400416273656E740054454D5052414E
:1024860054555245203D20002A4300202A4600414B
:0E2496004C4552542121210046696E6500001C
:00000001FF
